:100000000C9446000C9465000C9465000C946500FB
:100010000C9465000C9465000C9465000C946500CC
:100020000C9465000C9465000C9465000C946500BC
:100030000C9465000C94DE000C9465000C94650033
:100040000C9465000C9465000C9465000C9465009C
:100050000C9465000C9465000C9465000C9465008C
:100060000C9465000C9465000C9465000C9465007C
:100070000C9465000C9465000C9465000C9465006C
:100080000C9465000C9465000C94650011241FBE4F
:10009000CFEFD0E4DEBFCDBF11E0A0E0B1E0E6E4F9
:1000A000FAE000E00BBF02C007900D92A431B10747
:1000B000D9F721E0A4E1B1E001C01D92A733B20756
:1000C000E1F70E94D2030C9421050C940000CF9319
:1000D000DF9300D01F92CDB7DEB789837B836A831D
:1000E00089818A3031F48A819B81BC018DE00E9434
:1000F000670080EC90E0FC018081882F90E08072A6
:100100009927892BB1F386EC90E02981FC012083AB
:1001100080E090E00F900F900F90DF91CF910895C5
:10012000CF93DF93CDB7DEB781E080931401000059
:10013000DF91CF910895CF93DF93CDB7DEB781E8FC
:1001400090E0FC0110820000DF91CF910895CF93E1
:10015000DF93CDB7DEB781E890E02BE0FC01208390
:1001600088E890E02DE730E0FC01318320838FE6C2
:1001700090E022E0FC01208384E890E0FC01118201
:10018000108280910E0190910F01A0911001B09109
:1001900011018093150190931601A0931701B0935C
:1001A00018018FE590E02FE530E0F901208120680B
:1001B000FC0120830000DF91CF9108951F920F92E0
:1001C00000905F000F92112400905B000F922F931C
:1001D0003F934F935F936F937F938F939F93AF93CF
:1001E000BF93EF93FF93CF93DF93CDB7DEB78091AB
:1001F000150190911601A0911701B0911801019776
:10020000A109B1098093150190931601A0931701DC
:10021000B09318018091150190911601A0911701DA
:10022000B0911801892B8A2B8B2B91F40E9490009E
:1002300080910E0190910F01A0911001B0911101D8
:100240008093150190931601A0931701B0931801A4
:100250000000DF91CF91FF91EF91BF91AF919F91FE
:100260008F917F916F915F914F913F912F910F905F
:1002700000925B000F9000925F000F901F90189506
:10028000CF93DF9300D000D0CDB7DEB769837A83F8
:100290008B839C8389819A81AB81BC8180930E0181
:1002A00090930F01A0931001B093110180910E0162
:1002B00090910F01A0911001B0911101809315014F
:1002C00090931601A0931701B093180100000F90AE
:1002D0000F900F900F90DF91CF910895CF93DF9300
:1002E00000D01F92CDB7DEB789836A834B838B81A1
:1002F000882371F08A81282F30E081E090E002C0ED
:10030000880F991F2A95E2F7982F8981892B0EC0B3
:100310008A81282F30E081E090E002C0880F991F89
:100320002A95E2F7982F9095898189230F900F9055
:100330000F90DF91CF910895CF93DF9300D0CDB789
:10034000DEB789836A838A81282F30E081E090E0DC
:1003500002C0880F991F2A95E2F7982F8981892377
:100360000F900F90DF91CF9108950F931F93CF932C
:10037000DF93CDB7DEB708E210E040E064E08FEF36
:100380000E946E01F8018083000086E290E0FC018B
:100390008081809560E00E949C01882311F081E3B8
:1003A000D3C086E290E0FC018081809561E00E94EC
:1003B0009C01882311F084E3C7C086E290E0FC0131
:1003C0008081809562E00E949C01882311F087E380
:1003D000BBC086E290E0FC018081809563E00E94D2
:1003E0009C01882311F08AE2AFC008E210E040E0EF
:1003F00065E08FEF0E946E01F8018083000086E2C5
:1004000090E0FC018081809560E00E949C0188233F
:1004100011F082E399C086E290E0FC018081809532
:1004200061E00E949C01882311F085E38DC086E283
:1004300090E0FC018081809562E00E949C0188230D
:1004400011F088E381C086E290E0FC018081809514
:1004500063E00E949C01882311F080E375C008E2EC
:1004600010E040E066E08FEF0E946E01F8018083AB
:10047000000086E290E0FC018081809560E00E94AF
:100480009C01882311F083E35FC086E290E0FC01C9
:100490008081809561E00E949C01882311F086E3B1
:1004A00053C086E290E0FC018081809562E00E946A
:1004B0009C01882311F089E347C086E290E0FC01AB
:1004C0008081809563E00E949C01882311F083E283
:1004D0003BC008E210E040E067E08FEF0E946E0151
:1004E000F8018083000086E290E0FC018081809525
:1004F00060E00E949C01882311F081E425C086E21F
:1005000090E0FC018081809561E00E949C0188233D
:1005100011F082E419C086E290E0FC0180818095B0
:1005200062E00E949C01882311F083E40DC086E202
:1005300090E0FC018081809563E00E949C0188230B
:1005400011F084E401C080E0DF91CF911F910F9101
:100550000895CF93DF93CDB7DEB72C970FB6F894FD
:10056000DEBF0FBECDBF6D837E838F8398872987C3
:100570003A874B875C878D819E81AF81B8852985BD
:100580003A854B855C85BC01CD010E94FF04DC01EE
:10059000CB0189839A83AB83BC8389819A81AB81A8
:1005A000BC81892B8A2B8B2B29F489859A85AB8575
:1005B000BC8511C089859A85AB85BC858D839E835A
:1005C000AF83B88789819A81AB81BC8189879A87FB
:1005D000AB87BC87D0CFBC01CD012C960FB6F89469
:1005E000DEBF0FBECDBFDF91CF910895CF93DF93D4
:1005F00000D000D0CDB7DEB79C838B830E94B501BD
:10060000809319018B819C8181309105C1F08230EA
:1006100091051CF4892B39F04EC082309105E9F028
:100620000397D1F148C080911901833219F01C82DF
:100630001B8241C081E090E09C838B833CC0809111
:100640001901833229F481E090E09C838B8333C0CD
:1006500082E090E09C838B832EC0809119018823D7
:1006600091F080911F0191E0980F90931F01882FC6
:1006700090E020911901865E9E4FFC01208383E06B
:1006800090E09C838B8380911F01853099F484E0F6
:1006900090E09C838B830EC080911901882329F000
:1006A00083E090E09C838B8306C082E090E09C8393
:1006B0008B8301C000008B819C818230910509F4FD
:1006C00045C08330910534F4009751F0019709F447
:1006D0003FC039C083309105E9F1049739F033C048
:1006E00085E290E021E0FC01208335C080911A0171
:1006F0008133A1F480911B01823381F480911C012C
:10070000833361F480911D01843341F480911E0193
:10071000853321F485E290E0FC0110821A8219826F
:100720000BC089819A81865E9E4FFC01108289816F
:100730009A8101969A83898389819A8105978CF39E
:100740001C821B8208C01C821B8205C0000003C0E3
:10075000000001C000008B819C810F900F900F90D2
:100760000F90DF91CF910895CF93DF9300D0CDB755
:10077000DEB79A83898389819A81892B09F00BC01E
:1007800083E290E0FC018081882324F085E290E000
:10079000FC011082000089819A810F900F90DF91F7
:1007A000CF9108950F931F93CF93DF93CDB7DEB70B
:1007B00029970FB6F894DEBF0FBECDBF84E290E05C
:1007C0002FE7FC01208385E290E020E8FC012083F4
:1007D00087E290E020EFFC01208388E290E02FE0A8
:1007E000FC01208381E291E09F838E838CE291E083
:1007F0009987888782E090E09C838B831D828D811E
:100800008093210182E390E0A0E0B0E08093220198
:1008100090932301A0932401B0932501809122019C
:1008200090912301A0912401B0912501809326018C
:1008300090932701A0932801B093290186EF92E0BD
:1008400090932B0180932A018D8180932C0182E368
:1008500090E0A0E0B0E080932D0190932E01A09352
:100860002F01B093300180912D0190912E01A09124
:100870002F01B09130018093310190933201A09308
:100880003301B093340184EB93E09093360180936D
:10089000350162E370E080E090E00E9440010E9438
:1008A000A7001A8219829BC089819A81880F991F9B
:1008B0009E012F5F3F4F820F931F0596FC018081A1
:1008C0009181FC01258136814781508589819A81FA
:1008D000880F991FBE016F5F7F4F860F971F059688
:1008E000FC0180819181FC0181819281A381B4818D
:1008F000281739074A075B0709F045C089819A81A3
:10090000880F991F9E012F5F3F4F820F931F0596FF
:10091000FC010081118189819A81880F991F9E01B4
:100920002F5F3F4F820F931F0596FC0180819181BD
:10093000FC012185328589819A81880F991FAE013A
:100940004F5F5F4F840F951F0596FC018081918159
:10095000FC018081082E000C990BF9010995F80122
:10096000808389819A81880F991F9E012F5F3F4F55
:10097000820F931F0596FC0180819181FC011582F5
:1009800016821782108689819A81880F991F9E018D
:100990002F5F3F4F820F931F0596FC01208131810D
:1009A00089819A81880F991FAE014F5F5F4F840F35
:1009B000951F0596FC0180819181FC0185819681BE
:1009C000A781B085C296A11DB11DF90185839683CB
:1009D000A783B08789819A8101969A838983298127
:1009E0003A818B819C812817390708F45DCF00007C
:1009F000809114018823E1F31092140152CFA1E2F7
:100A00001A2EAA1BBB1BFD010DC0AA1FBB1FEE1F88
:100A1000FF1FA217B307E407F50720F0A21BB30BD3
:100A2000E40BF50B661F771F881F991F1A9469F74F
:100A300060957095809590959B01AC01BD01CF01AB
:060A40000895F894FFCFB9
:100A46000000000200000000670000000000010036
:040A5600000001009B
:00000001FF
